:020000040800F2
:1000000000280020050C0008990A00089F0A000833
:10001000A50A0008AB0A0008B10A000800000000A9
:10002000000000000000000000000000B70A000807
:10003000C30A000800000000CF0A0008DB0A00081D
:100040004D0C00084D0C00084D0C00084D0C00082C
:100050004D0C00084D0C00084D0C00084D0C00081C
:100060004D0C00084D0C00084D0C00084D0C00080C
:100070004D0C00084D0C00084D0C00084D0C0008FC
:100080004D0C00084D0C00084D0C00084D0C0008EC
:100090004D0C00084D0C00084D0C00084D0C0008DC
:1000A0004D0C00084D0C00084D0C00084D0C0008CC
:1000B000E90A00084D0C0008000000004D0C000883
:1000C0004D0C000800000000000000004D0C00086E
:1000D000000000004D0C00084D0C0008000000005E
:1000E0004D0C00084D0C00084D0C000800000000ED
:1000F0000000000000000000000000000000000000
:0C01000000000000000000005FF808F1A3
:10010C0010B5054C237833B9044B13B10448AFF345
:10011C0000800123237010BD5C0000200000000053
:10012C001030000808B5034B1BB103490348AFF36B
:10013C00008008BD000000006000002010300008A6
:10014C00034613F8012B002AFBD1181A013870470B
:10015C0080B5ADF57C7D00AF00F074FD00F04EFA7B
:10016C00002387F8EF3300F0E3F800F093F900F088
:10017C001BF900F065F94A4801F0E2FC4FF4FA7201
:10018C004FF4FA71474800F083FA034687F8EF33CF
:10019C0097F8EF233B1D4449184602F081FA0346B9
:1001AC009AB2391D4FF47A73404802F0A5F84FF417
:1001BC007A724FF47A713E4800F06AFA034687F877
:1001CC00EF3397F8EF233B1D3749184602F068FAD6
:1001DC0003469AB2391D4FF47A73344802F08CF806
:1001EC004FF4FA6240F2DC51324800F051FA034607
:1001FC0087F8EF3397F8EF233B1D2B49184602F095
:10020C004FFA03469AB2391D4FF47A73274802F01D
:10021C0073F84FF47A724FF4FA61274800F038FA09
:10022C00034687F8EF3397F8EF233B1D1E4918461A
:10023C0002F036FA03469AB2391D4FF47A731B4812
:10024C0002F05AF84FF4FA7240F6C4111B4800F051
:10025C001FFA034687F8EF3397F8EF233B1D12493B
:10026C00184602F01DFA03469AB2391D4FF47A7300
:10027C000E4802F041F84FF4FA7000F075FC00F0F3
:10028C0007FB0F4B1B68012BF9D14FF480710D4804
:10029C0000F0DCFF4FF4FA7000F066FCEFE700BFF3
:1002AC0078000020D502000828300008C00000208B
:1002BC00E9020008FD0200081103000825030008EC
:1002CC00E00100200008014080B500AF1021024879
:1002DC0000F0BCFF00BF80BD0008014080B500AF3E
:1002EC002021024800F0B2FF00BF80BD0008014091
:1002FC0080B500AF4021024800F0A8FF00BF80BDD0
:10030C000008014080B500AF8021024800F09EFF3C
:10031C0000BF80BD0008014080B500AF4FF4807174
:10032C00024800F093FF00BF80BD00BF00080140F1
:10033C0080B590B000AF07F11803282200211846B1
:10034C0002F0CEF93B1D00221A605A609A60DA6006
:10035C001A610223BB610123BB621023FB620023E1
:10036C007B6307F11803184600F08AFF0346002B45
:10037C0001D000F0C3F80F237B600023BB60002387
:10038C00FB6000233B6100237B613B1D0021184671
:10039C0001F0F8F90346002B01D000F0AFF800BFD4
:1003AC004037BD4680BD000080B586B000AF07F178
:1003BC00080300221A605A609A60DA603B460022F9
:1003CC001A605A601D4B4FF080421A601B4B41F66D
:1003DC003F725A60194B00229A60184B0922DA605E
:1003EC00164B00221A61154B00229A61134801F03A
:1003FC0057FB0346002B01D000F080F84FF48053DC
:10040C00BB6007F1080319460C4801F0D5FC034604
:10041C00002B01D000F072F800233B6000237B60BE
:10042C003B461946054801F0ADFE0346002B01D0B2
:10043C0000F064F800BF1837BD4680BD780000207E
:10044C0080B500AF114B124A1A60104B4FF4E132D9
:10045C005A600E4B00229A600C4B0022DA600B4B58
:10046C0000221A61094B0C225A61084B00229A6136
:10047C00064B0022DA61054801F0EEFE0346002B24
:10048C0001D000F03BF800BF80BD00BFC0000020D1
:10049C000044004080B586B000AF07F1080300228D
:1004AC001A605A609A60DA60124B9B69114A43F0E9
:1004BC00040393610F4B9B6903F004037B607B681F
:1004CC0001224FF4F8710C4800F0A8FE4FF4F873B9
:1004DC00BB600123FB6000233B6102237B6107F1BE
:1004EC0008031946044800F01DFD00BF1837BD462F
:1004FC0080BD00BF001002400008014080B400AF76
:10050C0072B600BFFEE70000B0B485B000AF7860F3
:10051C00384B1B781A467B68934201D3FF2363E068
:10052C007B68FB6017E0FB685A1C3348F9680B4684
:10053C009B000B449B0018442F4913469B0013440B
:10054C009B000B4404461D460FCD0FC42B68236043
:10055C00FB680133FB60274B1B78013BFA689A421E
:10056C00E1DB244B1B78013BDAB2224B1A70214B96
:10057C001B781946204A0B469B000B449B001344E6
:10058C0000221A601B4B1B7819461B4A0B469B001A
:10059C000B449B001344043300221A60154B1B7848
:1005AC001946154A0B469B000B449B001344083319
:1005BC0000221A600F4B1B7819460F4A0B469B0002
:1005CC000B449B0013440C3300221A70094B1B780C
:1005DC001946094A0B469B000B449B0013441033ED
:1005EC0000221A607B68DBB218461437BD46B0BCDB
:1005FC00704700BFD00100200801002080B483B0F8
:10060C0000AF00237B6033E01F497A6813469B00E0
:10061C0013449B000B4400221A601B497A68134652
:10062C009B0013449B000B44043300221A601649B0
:10063C007A6813469B0013449B000B44083300223A
:10064C001A6011497A6813469B0013449B000B44B3
:10065C000C3300221A700C497A6813469B00134421
:10066C009B000B44103300221A607B6801337B60C3
:10067C007B68092BC8DD054B00221A7000BF0C37B4
:10068C00BD4680BC704700BF08010020D00100208F
:10069C0080B485B000AFF860B9607A60304B1B78DD
:1006AC00092B02D94FF0FF3355E02D4B1B7819461F
:1006BC002C4A0B469B000B449B001344FA681A60AF
:1006CC00274B1B781846BB68274AA2FB0323DA0882
:1006DC00244903469B0003449B000B4404331A60DB
:1006EC001F4B1B7818467B681F4AA2FB0323DA08B2
:1006FC001C4903469B0003449B000B4408331A60BF
:10070C00174B1B781946174A0B469B000B449B0052
:10071C0013440C3300221A70114B1A78104B1B78AF
:10072C00194610460F4A0B469B000B449B00134482
:10073C00103318600A4B1B780133DAB2084B1A706D
:10074C00074B1B785A1E074913469B0013449B000A
:10075C000B4410331B6818461437BD4680BC7047D9
:10076C00D001002008010020CDCCCCCC80B59AB0B3
:10077C0000AF424B1B680A33404A136000237B6670
:10078C0070E03F497A6E13469B0013449B000B4468
:10079C0004331B68002B12D039497A6E13469B0028
:1007AC0013449B000B4404331B68591E34487A6E67
:1007BC0013469B0013449B000344043319603049D7
:1007CC007A6E13469B0013449B000B4404331B6846
:1007DC00002B44D12A497A6E13469B0013449B008C
:1007EC000B440C331B780133D8B225497A6E13466F
:1007FC009B0013449B000B440C3302461A70204997
:10080C007A6E13469B0013449B000B4408331B6801
:10081C00002B11D01A497A6E13469B0013449B008F
:10082C000B440833196816487A6E13469B00134420
:10083C009B00034404331960104B1B6838467A6ED6
:10084C00104901F02DFF3B461846FFF779FC034693
:10085C009AB239464FF47A730B4801F04DFD7B6E1A
:10086C0001337B66094B1B781A467B6E934288DBFF
:10087C0000BF00BF6837BD4680BD00BFD40100205B
:10088C00080100203C300008C0000020D0010020EE
:10089C0080B582B000AF00237B6047E029497A68BD
:1008AC0013469B0013449B000B440C331B78002B0A
:1008BC0039D024497A6813469B0013449B000B449F
:1008CC001B68002B08D01F497A6813469B00134401
:1008DC009B000B441B6898471A497A6813469B0087
:1008EC0013449B000B440C331B78013BD8B21549C5
:1008FC007A6813469B0013449B000B440C3302464E
:10090C001A7010497A6813469B0013449B000B44E1
:10091C0008331B68002B06D17B681846FFF7F4FDE3
:10092C007B68013B7B607B6801337B60064B1B78EB
:10093C001A467B689342B1DB00BF00BF0837BD4647
:10094C0080BD00BF08010020D001002080B485B01C
:10095C0000AF154B9B69144A43F001039361124B92
:10096C009B6903F00103BB60BB680F4BDB690E4A4C
:10097C0043F08053D3610C4BDB6903F080537B60F5
:10098C007B680A4B5B68FB60FB6823F0E063FB60F1
:10099C00FB6843F08063FB60044AFB68536000BF54
:1009AC001437BD4680BC7047001002400000014067
:1009BC0080B584B000AF78607B681B68B3F1804F62
:1009CC0013D10C4BDB690B4A43F00103D361094B88
:1009DC00DB6903F00103FB60FB68002200211C2093
:1009EC0000F069FA1C2000F082FA00BF1037BD46F7
:1009FC0080BD00BF0010024080B588B000AF7860A9
:100A0C0007F1100300221A605A609A60DA607B6862
:100A1C001B681B4A93422FD11A4BDB69194A43F4CA
:100A2C000033D361174BDB6903F40033FB60FB68C5
:100A3C00144B9B69134A43F004039361114B9B695C
:100A4C0003F00403BB60BB6804233B6102237B619E
:100A5C000323FB6107F1100319460B4800F062FAFF
:100A6C0008233B6100237B610023BB6107F110036A
:100A7C001946054800F056FA00BF2037BD4680BD28
:100A8C0000440040001002400008014080B400AF58
:100A9C00FEE780B400AFFEE780B400AFFEE780B4A1
:100AAC0000AFFEE780B400AFFEE780B400AF00BF3C
:100ABC00BD4680BC704780B400AF00BFBD4680BC53
:100ACC00704780B400AF00BFBD4680BC704780B596
:100ADC0000AF00F0FDF800BF80BD000080B500AF96
:100AEC00024801F079F800BF80BD00BF78000020FB
:100AFC0080B586B000AF7860144A154BD31A7B6171
:100B0C007B693B61134B1B68002B02D1114B124AC2
:100B1C001A60104B1A687B6813443A699A4207D2E0
:100B2C0001F0E6FD03460C221A604FF0FF3309E09A
:100B3C00084B1B68FB60074B1A687B681344054A1B
:100B4C001360FB6818461837BD4680BD002800208E
:100B5C0000040000D80100203003002080B400AF56
:100B6C0000BFBD4680BC704780B483B000AF7860D6
:100B7C007B68084A82FB03129210DB17D31A064AD1
:100B8C001360064B00221A6000BF0C37BD4680BCB8
:100B9C00704700BF67666666DC010020E00100203C
:100BAC0080B400AF094B1B68002B0BDD074B1B6897
:100BBC00013B064A1360054B1B68002B02DC044BFF
:100BCC0001221A6000BFBD4680BC7047DC010020CA
:100BDC00E001002080B582B000AF78607B681B68B4
:100BEC00B3F1804F03D1FFF7C1FDFFF7D9FF00BF71
:100BFC000837BD4680BD0000FFF7B0FF0B480C491D
:100C0C000C4A002302E0D458C4500433C4188C425C
:100C1C00F9D3094A094C002301E013600432A242C3
:100C2C00FBD301F06BFDFFF793FA70470000002037
:100C3C005C000020D03000085C0000203003002055
:100C4C00FEE7000080B500AF084B1B68074A43F075
:100C5C0010031360032000F023F90F2000F008F8B4
:100C6C00FFF774FE0023184680BD00BF0020024031
:100C7C0080B582B000AF7860124B1A68124B1B78AB
:100C8C0019464FF47A73B3FBF1F3B2FBF3F3184646
:100C9C0000F03BF90346002B01D001230EE07B68EA
:100CAC000F2B0AD8002279684FF0FF3000F003F9BF
:100CBC00064A7B681360002300E0012318460837BE
:100CCC00BD4680BD0000002008000020040000206C
:100CDC0080B400AF054B1B781A46054B1B681344B8
:100CEC00034A136000BFBD4680BC7047080000205B
:100CFC00E401002080B400AF024B1B681846BD46CF
:100D0C0080BC7047E401002080B485B000AF7860EF
:100D1C007B6803F00703FB600C4BDB68BB60BA68B5
:100D2C004FF6FF031340BB60FB681A02BB6813430A
:100D3C0043F0BF6343F40033BB60044ABB68D36029
:100D4C0000BF1437BD4680BC704700BF00ED00E00B
:100D5C0080B400AF044BDB681B0A03F00703184692
:100D6C00BD4680BC704700BF00ED00E080B483B08E
:100D7C0000AF0346FB7197F90730002B0BDBFB79B7
:100D8C0003F01F02064997F907305B09012000FAAE
:100D9C0002F241F8232000BF0C37BD4680BC7047DF
:100DAC0000E100E080B483B000AF03463960FB7112
:100DBC0097F90730002B0ADB3B68DAB20C4997F93C
:100DCC0007301201D2B20B4483F800230AE03B68CF
:100DDC00DAB20849FB7903F00F03043B1201D2B2DB
:100DEC000B441A7600BF0C37BD4680BC704700BF61
:100DFC0000E100E000ED00E080B489B000AFF860E5
:100E0C00B9607A60FB6803F00703FB61FB69C3F10F
:100E1C000703042B28BF0423BB61FB690433062B97
:100E2C0002D9FB69033B00E000237B614FF0FF32EA
:100E3C00BB6902FA03F3DA43BB681A407B699A4038
:100E4C004FF0FF317B6901FA03F3D9437B680B4008
:100E5C00134318462437BD4680BC704780B582B01A
:100E6C0000AF78607B68013BB3F1807F01D3012335
:100E7C000FE00A4A7B68013B53600F214FF0FF30B3
:100E8C00FFF790FF054B00229A60044B07221A6073
:100E9C00002318460837BD4680BD00BF10E000E0B7
:100EAC0080B582B000AF78607868FFF72DFF00BF87
:100EBC000837BD4680BD80B586B000AF0346B9602B
:100ECC007A60FB7300237B61FFF742FF78617A68DD
:100EDC00B9687869FFF790FF024697F90F30114611
:100EEC001846FFF75FFF00BF1837BD4680BD80B5C1
:100EFC0082B000AF0346FB7197F907301846FFF735
:100F0C0035FF00BF0837BD4680BD80B582B000AF4D
:100F1C0078607868FFF7A2FF034618460837BD468D
:100F2C0080BD000080B48BB000AF786039600023C6
:100F3C007B6200233B6261E101227B6A02FA03F3CC
:100F4C00FB613B681B68FA691340BB61BA69FB69BA
:100F5C009A4240F050813B685B68974A93425ED05E
:100F6C00954A934275D8954A934258D0934A9342E6
:100F7C006FD8934A934252D0914A934269D8914A7E
:100F8C0093424CD08F4A934263D88F4A934246D0B7
:100F9C008D4A93425DD8122B2AD8122B59D801A214
:100FAC0052F823F02B100008051000081710000849
:100FBC00591000085F1000085F1000085F1000084F
:100FCC005F1000085F1000085F1000085F10000839
:100FDC005F1000085F1000085F1000085F10000829
:100FEC005F1000085F1000080D10000821100008A9
:100FFC00764A934213D02CE03B68DB683B6229E0D5
:10100C003B68DB6804333B6224E03B68DB680833F5
:10101C003B621FE03B68DB680C333B621AE03B68C9
:10102C009B68002B02D104233B6213E03B689B6856
:10103C00012B05D108233B627B68FA691A6109E030
:10104C0008233B627B68FA695A6103E000233B6228
:10105C0000E000BFBB69FF2B01D87B6801E07B6817
:10106C0004337B61BB69FF2B02D87B6A9B0002E0D7
:10107C007B6A083B9B003B617B691A680F213B69CB
:10108C0001FA03F3DB431A40396A3B6901FA03F3B3
:10109C001A437B691A603B685B6803F08053002B32
:1010AC0000F0A9804A4B9B69494A43F001039361C4
:1010BC00474B9B6903F00103BB60BB68454A7B6AE5
:1010CC009B08023352F82330FB607B6A03F0030366
:1010DC009B000F2202FA03F3DB43FA681340FB6018
:1010EC007B683D4A93420DD07B683C4A934207D0C3
:1010FC007B683B4A934201D1022304E0032302E0C4
:10110C00012300E000237A6A02F00302920093406C
:10111C00FA681343FB602F497B6A9B080233FA6819
:10112C0041F823203B685B6803F48013002B06D046
:10113C002C4B9A682B49BB6913438B6006E0294BF7
:10114C009A68BB69DB43274913408B603B685B683B
:10115C0003F40013002B06D0224BDA682149BB693B
:10116C001343CB6006E01F4BDA68BB69DB431D49B8
:10117C001340CB603B685B6803F40033002B06D054
:10118C00184B5A681749BB6913434B6006E0154B63
:10119C005A68BB69DB43134913404B603B685B687F
:1011AC0003F48033002B1FD00E4B1A680D49BB691A
:1011BC0013430B601FE000BF000032100000311021
:1011CC00000022100000211000001210000011106D
:1011DC00001002400000014000080140000C0140DA
:1011EC0000100140000401400B4B1A68BB69DB4343
:1011FC00094913400B607B6A01337B623B681A68B8
:10120C007B6A22FA03F3002B7FF496AE00BF00BF7B
:10121C002C37BD4680BC70470004014080B483B0BD
:10122C0000AF78600B467B8013467B707B78002B7D
:10123C0003D07A887B681A6103E07B881A047B6888
:10124C001A6100BF0C37BD4680BC704780B485B0B6
:10125C0000AF78600B467B807B68DB68FB607A882C
:10126C00FB6813401A04FB68D9437B880B401A4374
:10127C007B681A6100BF1437BD4680BC7047000004
:10128C0080B586B000AF78607B68002B01D101235C
:10129C0072E27B681B6803F00103002B00F087806F
:1012AC00924B5B6803F00C03042B0CD08F4B5B68E8
:1012BC0003F00C03082B12D18C4B5B6803F48033C6
:1012CC00B3F5803F0BD1894B1B6803F40033002B23
:1012DC006CD07B685B68002B68D101234CE27B6887
:1012EC005B68B3F5803F06D1804B1B687F4A43F4A3
:1012FC00803313602EE07B685B68002B0CD17B4B3A
:10130C001B687A4A23F480331360784B1B68774A46
:10131C0023F4802313601DE07B685B68B3F5A02F7A
:10132C000CD1724B1B68714A43F4802313606F4BD2
:10133C001B686E4A43F4803313600BE06B4B1B68E5
:10134C006A4A23F480331360684B1B68674A23F4A2
:10135C00802313607B685B68002B13D0FFF7CAFCFB
:10136C00386108E0FFF7C6FC02463B69D31A642BD0
:10137C0001D9032300E25D4B1B6803F40033002BFF
:10138C00F0D014E0FFF7B6FC386108E0FFF7B2FCD0
:10139C0002463B69D31A642B01D90323ECE1534B6E
:1013AC001B6803F40033002BF0D100E000BF7B6816
:1013BC001B6803F00203002B63D04C4B5B6803F0FB
:1013CC000C03002B0BD0494B5B6803F00C03082B70
:1013DC001CD1464B5B6803F48033002B16D1434B76
:1013EC001B6803F00203002B05D07B681B69012BE3
:1013FC0001D00123C0E13D4B1B6823F0F8027B6850
:10140C005B69DB00394913430B603AE07B681B696D
:10141C00002B20D0364B01221A60FFF76BFC386191
:10142C0008E0FFF767FC02463B69D31A022B01D98F
:10143C000323A1E12D4B1B6803F00203002BF0D01A
:10144C002A4B1B6823F0F8027B685B69DB00274999
:10145C0013430B6015E0264B00221A60FFF74AFC81
:10146C00386108E0FFF746FC02463B69D31A022BB1
:10147C0001D9032380E11D4B1B6803F00203002BF1
:10148C00F0D17B681B6803F00803002B3AD07B6813
:10149C009B69002B19D0174B01221A60FFF72AFC0D
:1014AC00386108E0FFF726FC02463B69D31A022B91
:1014BC0001D9032360E10D4B5B6A03F00203002B9F
:1014CC00F0D0012000F0CEFA1CE00A4B00221A608A
:1014DC00FFF710FC38610FE0FFF70CFC02463B698C
:1014EC00D31A022B08D9032346E100BF0010024097
:1014FC000000424280044242924B5B6A03F00203BA
:10150C00002BE9D17B681B6803F00403002B00F06F
:10151C00A6800023FB758B4BDB6903F08053002BFB
:10152C000DD1884BDB69874A43F08053D361854BDF
:10153C00DB6903F08053BB60BB680123FB75824BF6
:10154C001B6803F48073002B18D17F4B1B687E4AF9
:10155C0043F480731360FFF7CDFB386108E0FFF7AD
:10156C00C9FB02463B69D31A642B01D9032303E15F
:10157C00754B1B6803F48073002BF0D07B68DB6821
:10158C00012B06D16F4B1B6A6E4A43F001031362A9
:10159C002DE07B68DB68002B0CD16A4B1B6A694A17
:1015AC0023F001031362674B1B6A664A23F00403A2
:1015BC0013621CE07B68DB68052B0CD1614B1B6A4A
:1015CC00604A43F0040313625E4B1B6A5D4A43F0AE
:1015DC00010313620BE05B4B1B6A5A4A23F00103B5
:1015EC001362584B1B6A574A23F0040313627B683F
:1015FC00DB68002B15D0FFF77DFB38610AE0FFF7A5
:10160C0079FB02463B69D31A41F28832934201D9E5
:10161C000323B1E04B4B1B6A03F00203002BEED00B
:10162C0014E0FFF767FB38610AE0FFF763FB024643
:10163C003B69D31A41F28832934201D903239BE0D0
:10164C00404B1B6A03F00203002BEED1FB7D012BF8
:10165C0005D13C4BDB693B4A23F08053D3617B685B
:10166C00DB69002B00F08780364B5B6803F00C03C2
:10167C00082B61D07B68DB69022B46D1334B0022EF
:10168C001A60FFF737FB386108E0FFF733FB0246BF
:10169C003B69D31A022B01D903236DE0294B1B683C
:1016AC0003F00073002BF0D17B681B6AB3F5803F0D
:1016BC0008D1244B5B6823F400327B689B6821497A
:1016CC0013434B601F4B5B6823F474127B68196ADD
:1016DC007B685B6A0B431B4913434B601B4B01221A
:1016EC001A60FFF707FB386108E0FFF703FB0246BF
:1016FC003B69D31A022B01D903233DE0114B1B6824
:10170C0003F00073002BF0D035E0104B00221A6070
:10171C00FFF7F0FA386108E0FFF7ECFA02463B6994
:10172C00D31A022B01D9032326E0064B1B6803F0C6
:10173C000073002BF0D11EE07B68DB69012B07D115
:10174C00012319E00010024000700040600042428A
:10175C000B4B5B68FB60FB6803F480327B681B6A95
:10176C009A4206D1FB6803F470127B685B6A9A425A
:10177C0001D0012300E0002318461837BD4680BD78
:10178C000010024080B584B000AF786039607B688F
:10179C00002B01D10123D0E06A4B1B6803F0070337
:1017AC003A689A4210D9674B1B6823F007026549C7
:1017BC003B6813430B60634B1B6803F007033A68E9
:1017CC009A4201D00123B8E07B681B6803F0020346
:1017DC00002B20D07B681B6803F00403002B05D082
:1017EC00594B5B68584A43F4E06353607B681B6851
:1017FC0003F00803002B05D0534B5B68524A43F4AB
:10180C0060535360504B5B6823F0F0027B689B681D
:10181C004D4913434B607B681B6803F00103002B9D
:10182C0040D07B685B68012B07D1474B1B6803F4E6
:10183C000033002B15D101237FE07B685B68022B02
:10184C0007D1414B1B6803F00073002B09D1012316
:10185C0073E03D4B1B6803F00203002B01D1012305
:10186C006BE0394B5B6823F003027B685B6836499D
:10187C0013434B60FFF73EFAF8600AE0FFF73AFAC1
:10188C000246FB68D31A41F28832934201D90323F2
:10189C0053E02D4B5B6803F00C027B685B689B008C
:1018AC009A42EBD1274B1B6803F007033A689A4224
:1018BC0010D2244B1B6823F0070222493B681343C8
:1018CC000B60204B1B6803F007033A689A4201D067
:1018DC00012332E07B681B6803F00403002B08D063
:1018EC00194B5B6823F4E0627B68DB681649134391
:1018FC004B607B681B6803F00803002B09D0124B6C
:10190C005B6823F460527B681B69DB000E49134350
:10191C004B6000F021F802460B4B5B681B0903F08F
:10192C000F030A49CB5C22FA03F3094A1360094BF3
:10193C001B681846FFF79CF9002318461037BD4664
:10194C0080BD00BF0020024000100240683000083B
:10195C00000000200400002080B487B000AF0023FA
:10196C00FB600023BB6000237B6100237B600023B2
:10197C003B611E4B5B68FB60FB6803F00C03042BA4
:10198C0002D0082B03D027E0194B3B6127E0FB6802
:10199C009B0C03F00F03174AD35C7B60FB6803F4CA
:1019AC008033002B10D0114B5B685B0C03F00103F0
:1019BC00114AD35CBB607B680D4A03FB02F2BB6827
:1019CC00B2FBF3F37B6104E07B680C4A02FB03F38C
:1019DC007B617B693B6102E0054B3B6100BF3B696E
:1019EC0018461C37BD4680BC704700BF0010024033
:1019FC0000127A00803000089030000800093D0089
:101A0C0080B400AF024B1B681846BD4680BC7047C3
:101A1C000000002080B500AFFFF7F2FF0246054B37
:101A2C005B681B0A03F007030349CB5C22FA03F340
:101A3C00184680BD001002407830000880B500AF19
:101A4C00FFF7DEFF0246054B5B68DB0A03F007037A
:101A5C000349CB5C22FA03F3184680BD0010024008
:101A6C007830000880B485B000AF78600A4B1B68F2
:101A7C000A4AA2FB03235B0A7A6802FB03F3FB60AE
:101A8C0000BFFB685A1EFA60002BF9D100BF00BFE3
:101A9C001437BD4680BC704700000020D34D621047
:101AAC0080B582B000AF78607B68002B01D1012338
:101ABC0041E07B6893F83D30DBB2002B06D17B68AC
:101ACC00002283F83C207868FEF772FF7B680222C4
:101ADC0083F83D207B681A687B68043319461046EE
:101AEC0000F056FA7B68012283F846207B680122BD
:101AFC0083F83E207B68012283F83F207B6801221B
:101B0C0083F840207B68012283F841207B68012206
:101B1C0083F842207B68012283F843207B680122F2
:101B2C0083F844207B68012283F845207B680122DE
:101B3C0083F83D20002318460837BD4680BD0000C1
:101B4C0080B485B000AF78607B6893F83D30DBB231
:101B5C00012B01D0012335E07B68022283F83D2064
:101B6C007B681B68DA687B681B6842F00102DA60EC
:101B7C007B681B68164A934209D07B681B68B3F1DB
:101B8C00804F04D07B681B68124A934211D17B684A
:101B9C001B689B6803F00703FB60FB68062B10D0E7
:101BAC007B681B681A687B681B6842F001021A602C
:101BBC0007E07B681B681A687B681B6842F00102AF
:101BCC001A60002318461437BD4680BC704700BF0E
:101BDC00002C01400004004080B584B000AF786058
:101BEC007B681B68DB68FB607B681B681B69BB60E0
:101BFC00BB6803F00203002B20D0FB6803F0020348
:101C0C00002B1BD07B681B686FF002021A617B688B
:101C1C0001221A777B681B689B6903F00303002B76
:101C2C0003D0786800F098F905E0786800F08BF93B
:101C3C00786800F09AF97B6800221A77BB6803F089
:101C4C000403002B20D0FB6803F00403002B1BD0F3
:101C5C007B681B686FF004021A617B6802221A779A
:101C6C007B681B689B6903F44073002B03D0786876
:101C7C0000F072F905E0786800F065F9786800F01A
:101C8C0074F97B6800221A77BB6803F00803002BF9
:101C9C0020D0FB6803F00803002B1BD07B681B686B
:101CAC006FF008021A617B6804221A777B681B6844
:101CBC00DB6903F00303002B03D0786800F04CF9C8
:101CCC0005E0786800F03FF9786800F04EF97B6821
:101CDC0000221A77BB6803F01003002B20D0FB689E
:101CEC0003F01003002B1BD07B681B686FF01002F5
:101CFC001A617B6808221A777B681B68DB6903F41E
:101D0C004073002B03D0786800F026F905E0786862
:101D1C0000F019F9786800F028F97B6800221A772E
:101D2C00BB6803F00103002B0CD0FB6803F001032C
:101D3C00002B07D07B681B686FF001021A61786872
:101D4C00FEF748FFBB6803F08003002B0CD0FB6848
:101D5C0003F08003002B07D07B681B686FF08002B8
:101D6C001A61786800F06FFABB6803F04003002B2F
:101D7C000CD0FB6803F04003002B07D07B681B687A
:101D8C006FF040021A61786800F0F8F8BB6803F055
:101D9C002003002B0CD0FB6803F02003002B07D092
:101DAC007B681B686FF020021A61786800F042FAB9
:101DBC0000BF1037BD4680BD80B584B000AF7860E1
:101DCC0039600023FB737B6893F83C30012B01D105
:101DDC000223B4E07B68012283F83C207B6802225A
:101DEC0083F83D207B681B689B68BB60BB6823F055
:101DFC007703BB60BB6823F47F43BB607B681B68C5
:101E0C00BA689A603B681B68B3F5005F3ED0B3F5C7
:101E1C00005F00F28780B3F5805F00F08680B3F539
:101E2C00805F7FD8702B1AD0702B7BD8602B50D052
:101E3C00602B77D8502B3CD0502B73D8402B58D0DC
:101E4C00402B6FD8302B64D0302B6BD8202B60D02C
:101E5C00202B67D8002B5CD0102B5AD062E07B680B
:101E6C0018683B6899683B685A683B68DB6800F007
:101E7C006AF97B681B689B68BB60BB6843F077039F
:101E8C00BB607B681B68BA689A604FE07B68186817
:101E9C003B6899683B685A683B68DB6800F053F90B
:101EAC007B681B689A687B681B6842F480429A6066
:101EBC003CE07B6818683B6859683B68DB681A46ED
:101ECC0000F0CAF87B681B685021184600F021F915
:101EDC002CE07B6818683B6859683B68DB681A46DD
:101EEC0000F0E8F87B681B686021184600F011F9D7
:101EFC001CE07B6818683B6859683B68DB681A46CD
:101F0C0000F0AAF87B681B684021184600F001F924
:101F1C000CE07B681A683B681B681946104600F099
:101F2C00F8F803E00123FB7300E000BF7B6801229B
:101F3C0083F83D207B68002283F83C20FB7B18460D
:101F4C001037BD4680BD80B483B000AF786000BF51
:101F5C000C37BD4680BC704780B483B000AF78604E
:101F6C0000BF0C37BD4680BC704780B483B000AF57
:101F7C00786000BF0C37BD4680BC704780B483B01E
:101F8C0000AF786000BF0C37BD4680BC70470000C6
:101F9C0080B485B000AF786039607B681B68FB60EB
:101FAC007B682B4A934207D07B68B3F1804F03D0F8
:101FBC007B68284A934208D1FB6823F07003FB60CE
:101FCC003B685B68FA681343FB607B68204A93426A
:101FDC0007D07B68B3F1804F03D07B681D4A9342D6
:101FEC0008D1FB6823F44073FB603B68DB68FA683C
:101FFC001343FB60FB6823F080023B685B6913436F
:10200C00FB607B68FA681A603B689A687B68DA62E6
:10201C003B681A687B689A627B680D4A934203D1CD
:10202C003B681A697B681A637B6801225A617B687A
:10203C001B6903F00103002B05D07B681B6923F09F
:10204C0001027B681A6100BF1437BD4680BC704723
:10205C00002C01400004004080B487B000AFF86051
:10206C00B9607A60FB681B6A7B61FB681B6A23F0B2
:10207C000102FB681A62FB689B693B613B6923F0B8
:10208C00F0033B617B681B013A6913433B617B693D
:10209C0023F00A037B617A69BB6813437B61FB689D
:1020AC003A699A61FB687A691A6200BF1C37BD46AF
:1020BC0080BC704780B487B000AFF860B9607A60BC
:1020CC00FB681B6A7B61FB681B6A23F01002FB68D0
:1020DC001A62FB689B693B613B6923F470433B616B
:1020EC007B681B033A6913433B617B6923F0A003B4
:1020FC007B61BB681B017A6913437B61FB683A699E
:10210C009A61FB687A691A6200BF1C37BD4680BCB5
:10211C00704780B485B000AF786039607B689B688D
:10212C00FB60FB6823F07003FB603A68FB681343A9
:10213C0043F00703FB607B68FA689A6000BF1437B2
:10214C00BD4680BC704780B487B000AFF860B96002
:10215C007A603B60FB689B687B617B6923F47F43FF
:10216C007B613B681A027B681A43BB6813437A692C
:10217C0013437B61FB687A699A6000BF1C37BD46CC
:10218C0080BC704780B485B000AF786039607B68E4
:10219C0093F83C30012B01D1022341E07B680122F2
:1021AC0083F83C207B68022283F83D207B681B6807
:1021BC005B68FB607B681B689B68BB60FB6823F0FB
:1021CC007003FB603B681B68FA681343FB607B6819
:1021DC001B68FA685A607B681B68144A934209D0E2
:1021EC007B681B68B3F1804F04D07B681B68104A76
:1021FC0093420CD1BB6823F08003BB603B685B68E7
:10220C00BA681343BB607B681B68BA689A607B68CA
:10221C00012283F83D207B68002283F83C200023B8
:10222C0018461437BD4680BC704700BF002C0140D7
:10223C000004004080B483B000AF786000BF0C375E
:10224C00BD4680BC704780B483B000AF786000BFDF
:10225C000C37BD4680BC704780B582B000AF78604B
:10226C007B68002B01D1012342E07B6893F841305D
:10227C00DBB2002B06D17B68002283F84020786803
:10228C00FEF7BAFB7B68242283F841207B681B682D
:10229C00DA687B681B6822F40052DA60786800F018
:1022AC0071F97B681B681A697B681B6822F4904281
:1022BC001A617B681B685A697B681B6822F02A02CA
:1022CC005A617B681B68DA687B681B6842F40052B1
:1022DC00DA607B6800225A647B68202283F84120F4
:1022EC007B68202283F842207B6800225A630023FB
:1022FC0018460837BD4680BD80B58AB002AFF8607D
:10230C00B9603B601346FB8000237B61FB6893F84C
:10231C004130DBB2202B75D1BB68002B02D0FB887F
:10232C00002B01D101236EE0FB6800225A64FB688C
:10233C00212283F84120FEF7DDFC7861FB68FA88E6
:10234C009A84FB68FA88DA84FB689B68B3F5805F33
:10235C0008D1FB681B69002B04D10023FB61BB680F
:10236C00BB6103E0BB68FB610023BB612EE03B68F3
:10237C0000937B6900228021F86800F048F803463E
:10238C00002B05D0FB68202283F8412003233AE080
:10239C00FB69002B0BD1BB691B881A46FB681B68B9
:1023AC00C2F308025A60BB690233BB6107E0FB69E8
:1023BC001A78FB681B685A60FB690133FB61FB6888
:1023CC00DB8C9BB2013B9AB2FB68DA84FB68DB8C3A
:1023DC009BB2002BCBD13B6800937B690022402140
:1023EC00F86800F014F80346002B05D0FB68202297
:1023FC0083F84120032306E0FB68202283F8412068
:10240C00002300E0022318462037BD4680BD80B56E
:10241C0086B000AFF860B9603B601346FB713BE0DF
:10242C003B6AB3F1FF3F37D0FEF764FC02463B68D2
:10243C00D31A3A6A9A4202D33B6A002B01D1032386
:10244C003AE0FB681B68DB6803F00403002B23D025
:10245C00BB68802B20D0BB68402B1DD0FB681B6851
:10246C001B6803F00803082B16D100237B61FB6863
:10247C001B681B687B61FB681B685B687B617B6905
:10248C00F86800F01DF8FB6808225A64FB6800220B
:10249C0083F8402001230FE0FB681B681A68BB68B7
:1024AC001340BA689A420CBF01230023DBB21A46D0
:1024BC00FB799A42B4D0002318461837BD4680BD2C
:1024CC0080B495B000AF78607B681B680C337B637D
:1024DC007B6B53E8003F3B633B6B23F49073FB64D3
:1024EC007B681B680C33FA6C3A64FB63F96B3A6CCF
:1024FC0041E80023BB63BB6B002BE5D17B681B68F9
:10250C0014333B623B6A53E8003FFB61FB6923F0E9
:10251C000103BB647B681B681433BA6CFA62BB6240
:10252C00B96AFA6A41E800237B627B6A002BE5D129
:10253C007B681B6B012B19D17B681B680C33FB6010
:10254C00FB6853E8003FBB60BB6823F010037B645F
:10255C007B681B680C337A6CBA617B617969BA69E8
:10256C0041E800233B613B69002BE5D17B682022CD
:10257C0083F842207B6800221A6300BF5437BD46A3
:10258C0080BC704780B584B000AF78607B681B68F6
:10259C001B6923F440517B68DA687B681B680A432B
:1025AC001A617B689A687B681B691A437B685B6954
:1025BC001343BB607B681B68DB6823F4B05323F0C8
:1025CC000C037A681268B9680B43D3607B681B688C
:1025DC005B6923F440717B689A697B681B680A43CA
:1025EC005A617B681B682C4A934203D1FFF726FA89
:1025FC00F86002E0FFF70EFAF860FA6813469B00E9
:10260C0013449A001A447B685B689B00B2FBF3F39B
:10261C00224AA2FB03235B091901FA6813469B00AB
:10262C0013449A001A447B685B689B00B2FBF3F27C
:10263C001A4BA3FB02035B09642000FB03F3D31AC0
:10264C001B013233154AA2FB03235B0903F0F00391
:10265C001944FA6813469B0013449A001A447B6889
:10266C005B689B00B2FBF3F20C4BA3FB02035B0910
:10267C00642000FB03F3D31A1B013233074AA2FB7D
:10268C0003235B0903F00F027B681B680A449A6002
:10269C0000BF1037BD4680BD003801401F85EB518F
:1026AC000EB46FF0004100B59CB01DAB02900690CB
:1026BC00079104910848094953F8042B05910068C7
:1026CC0002A9019300F08EF90022029B1A701CB033
:1026DC005DF804EB03B07047580000200802FFFFC0
:1026EC0003460244934200D1704703F8011BF9E7FB
:1026FC00014B1868704700BF5800002070B50026C9
:10270C000C4D0D4C641BA410A64209D100F07AFCB0
:10271C0000260A4D0A4C641BA410A64205D170BDBC
:10272C0055F8043B98470136EEE755F8043B9847BB
:10273C000136F2E7C8300008C8300008C83000087D
:10274C00CC3000087047704738B50546002940D09A
:10275C0051F8043C0C1F002BB8BFE41800F0DCF857
:10276C001C4A136833B9636014602846BDE83840CE
:10277C0000F0D8B8A34208D9206821188B4201BFB9
:10278C0019685B6809182160EDE71A465B680BB1A4
:10279C00A342FAD911685018A0420BD12068014409
:1027AC00501883421160E0D118685B6808441060CF
:1027BC005360DAE702D90C232B60D6E72068211886
:1027CC008B4201BF19685B68091821606360546013
:1027DC00CBE738BD2803002070B50E4E0C4631688F
:1027EC00054611B900F0AAFB30602146284600F0DE
:1027FC00A5FB431C0AD0C41C24F00304A04207D040
:10280C00211A284600F09AFB013001D14FF0FF3419
:10281C00204670BD2C0300202DE9F843CD1C25F07B
:10282C00030508350C2D38BF0C25002D074601DBA0
:10283C00A94205D90C2300263B603046BDE8F8833D
:10284C00DFF8D08000F068F8D8F800301C465CBB8C
:10285C0029463846FFF7C0FF431C044655D1D8F82B
:10286C0000402646002E45D1002C48D02368314626
:10287C00384604EB030900F061FB81453FD1216828
:10288C0038466D1A2946FFF7A7FF013037D0236869
:10289C002B442360D8F80030002B38D05A68A24261
:1028AC002BD100225A600FE02268521B1FD40B2A36
:1028BC0017D96119A342256018BF5960636808BF16
:1028CC00C8F8001062514B60384604F10B0600F05A
:1028DC0029F826F00706231DF21AAED09B1BA35035
:1028EC00ABE7A3426268DDD1C8F80020ECE72346D1
:1028FC006468ACE734467668B4E71346CCE70C233F
:10290C0038463B6000F00EF897E72560DCE75B602B
:10291C00FFDE00BF280300200148FFF713BF00BFF4
:10292C00240300200148FFF70EBF00BF2403002042
:10293C002DE9F0471F468E688246BE420C469046F3
:10294C000B682CD88A8912F4906F26D065690969B6
:10295C0005EB4505A3EB010905EBD5757B1C4B4439
:10296C006D109D4238BF1D46530527D52946FFF7EC
:10297C0053FF064660B34A46216900F0FDFAA3896D
:10298C0023F4906343F08003A38126614E442660B8
:10299C003E466561A5EB0905A560BE4200D93E46E1
:1029AC0032464146206800F0AFFA0020A3689B1B1A
:1029BC00A360236833442360BDE8F0872A4600F007
:1029CC00E9FA06460028E0D150462169FFF7BCFE23
:1029DC000C23CAF80030A3894FF0FF3043F04003BA
:1029EC00A381E9E72DE9F04F98468B8907461B0632
:1029FC000D4614469DB00ED50B6963B94021FFF707
:102A0C000BFF2860286120B90C233B604FF0FF308E
:102A1C00D0E040236B610023099320238DF82930EB
:102A2C0030234FF00109CDF80C80DFF8A0818DF830
:102A3C002A3023469A4613F8012B0AB1252AF9D1DC
:102A4C00BAEB040B0BD05B46224629463846FFF7FF
:102A5C006FFF013000F0A980099A5A4409929AF844
:102A6C000030002B00F0A18000234FF0FF32CDE9A5
:102A7C0005230AF1010A049307938DF853301A9336
:102A8C005446052214F8011B504800F067FA049ACA
:102A9C00D8B9D00644BF20238DF85330110744BF5A
:102AAC002B238DF853309AF800302A2B15D054462E
:102ABC0000204FF00A0C079A214611F8013B303BDD
:102ACC00092B4DD9B0B1079214E0A0EB080309FA19
:102ADC0003F31343A2460493D2E7039B191D1B680F
:102AEC000391002BBBBF5B4242F00202079307939A
:102AFC00B8BF049223782E2B0CD163782A2B34D1B7
:102B0C00039B02341A1D1B680392002BB8BF4FF0B5
:102B1C00FF330593DFF8B8A003225046217800F06C
:102B2C001DFA38B14022049BA0EB0A0082401343EB
:102B3C000134049314F8011B062226488DF8281042
:102B4C0000F00CFA002838D0234B1BBB039B073337
:102B5C0023F0070308330393099B3344099368E775
:102B6C000C4601200CFB0232A6E700234FF00A0CA6
:102B7C00194601340593204610F8012B303A092AE6
:102B8C0003D9002BC6D00591C4E7044601230CFBE6
:102B9C000121F0E703AB00932A4638460F4B04A9FA
:102BAC00AFF30080421C0646D6D1AB895B063FF5DD
:102BBC002DAF09981DB0BDE8F08F03AB00932A46EA
:102BCC003846064B04A900F07DF8EBE7923000087C
:102BDC00983000089C300008000000003D290008D7
:102BEC002DE9F047164699468A680B6907469342C9
:102BFC00B8BF1346336091F843200C46DDF82080B3
:102C0C000AB1013333602368990642BF336802333B
:102C1C003360256815F0060506D104F1190AE3683E
:102C2C0032689B1AAB422BDC94F84320131E2268AB
:102C3C0018BF0123920630D44946384604F14302AA
:102C4C00C047013023D02368226903F00603042B0C
:102C5C0014BF002533684FF0000608BFE56804F187
:102C6C001A0408BFED1A54F8123C08BF25EAE575A2
:102C7C009342C4BF9B1AED18B5421AD1002008E04C
:102C8C000123524649463846C047013003D14FF024
:102C9C00FF30BDE8F0870135C1E73020E11881F83D
:102CAC0043005A1C94F845102244023382F8431016
:102CBC00C2E70123224649463846C0470130E6D0D8
:102CCC000136D9E72DE9FF470F7E9146782F8046D4
:102CDC000C469A460C9D01F1430207D8622F0AD884
:102CEC00002F00F0D580582F00F0C18004F1420570
:102CFC0084F842703AE0A7F16303152BF6D801A1D2
:102D0C0051F823F0692D00087D2D0008F92C0008DE
:102D1C00F92C0008F92C0008F92C00087D2D00086E
:102D2C00F92C0008F92C0008F92C0008F92C0008E3
:102D3C00832E0008A92D00083D2E0008F92C000850
:102D4C00F92C0008A52E0008F92C0008A92D000864
:102D5C00F92C0008F92C0008452E00082B681A1DC8
:102D6C001B682A6004F1420584F842300123A0E07C
:102D7C0020682B68070603F10401296001D51E6841
:102D8C0003E04606FBD5B3F90060002E03DA2D23D1
:102D9C00764284F843300A23594812E02B682068A5
:102DAC00191D2960050601D51E6802E04106FBD5F8
:102DBC001E886F2F0CBF08230A235148002184F86A
:102DCC0043106568002DA8BF2168A560A4BF21F041
:102DDC00040121600EB9002D4BD01546B6FBF3F162
:102DEC0003FB1167C75D05F8017D3746BB420E46F4
:102DFC00F4D9082B0BD12368DE0708D52369616849
:102E0C009942DEBF302305F8013C05F1FF35521B1A
:102E1C0022614B4621464046CDF800A003AAFFF79D
:102E2C00DFFE01304AD14FF0FF3004B0BDE8F0872F
:102E3C00236843F0200323607827324884F84570D8
:102E4C00236829681F0651F8046B02D45F0648BF3B
:102E5C00B6B2DF0748BF43F02003296048BF2360A8
:102E6C001EB9236823F0200323601023A6E724480F
:102E7C00E4E71546BDE72B682668181D61692860D4
:102E8C0035061B6801D5196002E07006FBD5198068
:102E9C00002315462361BCE72B6800211A1D2A600C
:102EAC001D686268284600F059F808B1401B606044
:102EBC0063682361002384F84330AAE72A46494615
:102ECC0040462369D0470130ADD023689B0713D40B
:102EDC00E068039B9842B8BF1846A6E70123324628
:102EEC0049464046D04701309DD00135E3680399EF
:102EFC005B1AAB42F2DCEBE7002504F11906F5E7AF
:102F0C00A3300008B4300008884210B501EB02046D
:102F1C0002D98442234607D8431EA14208D011F897
:102F2C00012B03F8012FF8E7014602448A4200D135
:102F3C0010BD13F8014D02F8014DF7E738B5002329
:102F4C00054D044608462B60FDF7D2FD431C02D10B
:102F5C002B6803B1236038BD20030020034610B555
:102F6C00C9B202449342184601D1002003E0047810
:102F7C0001338C42F6D110BD0A44914200F1FF336B
:102F8C0000D1704710B511F8014B914203F8014F75
:102F9C00F9D110BD2DE9F041804614460E4621B9F9
:102FAC001146BDE8F041FFF737BC2AB9FFF7CCFB5F
:102FBC0025462846BDE8F08100F01BF88442074600
:102FCC0002D8B4EB500F12D821464046FFF724FC30
:102FDC0005460028EDD0BC422246314628BF3A4671
:102FEC00FFF7CAFF31464046FFF7AEFBE1E7354637
:102FFC00DFE751F8043C181F002BBCBF0B58C0185E
:10300C0070470000F8B500BFF8BC08BC9E4670477E
:0C301C00F8B500BFF8BC08BC9E46704729
:103028005461736B2025642069732061646465644E
:103038000D0A00005461736B20256420757064616B
:1030480074656420617420656C61707365642074B4
:10305800696D6520256C75206D730D0A00000000F0
:103068000000000000000000010203040607080930
:103078000000000001020304020304050607080912
:103088000A0B0C0D0E0F10100102232D302B2000FF
:10309800686C4C006566674546470030313233340A
:1030A80035363738394142434445460030313233AA
:1030B800343536373839616263646566000000006C
:0430C80031010008CA
:0430CC000D010008EA
:1030D00000127A0010000000010000000000000053
:1030E000E801002050020020B8020020000000008B
:1030F00000000000000000000000000000000000D0
:1031000000000000000000000000000000000000BF
:1031100000000000000000000000000000000000AF
:0C31200000000000000000000C00002077
:0400000508000C05DE
:00000001FF
